{
  "address": "0xAfCfee27D0eF661cD42a1B0D7B488D181adA784f",
  "abi": [
    {
      "anonymous": false,
      "inputs": [
        {
          "indexed": true,
          "internalType": "uint256",
          "name": "pollId",
          "type": "uint256"
        },
        {
          "indexed": false,
          "internalType": "address",
          "name": "closer",
          "type": "address"
        }
      ],
      "name": "PollClosed",
      "type": "event"
    },
    {
      "anonymous": false,
      "inputs": [
        {
          "indexed": true,
          "internalType": "uint256",
          "name": "pollId",
          "type": "uint256"
        },
        {
          "indexed": false,
          "internalType": "string",
          "name": "question",
          "type": "string"
        },
        {
          "indexed": false,
          "internalType": "address",
          "name": "creator",
          "type": "address"
        }
      ],
      "name": "PollCreated",
      "type": "event"
    },
    {
      "anonymous": false,
      "inputs": [
        {
          "indexed": true,
          "internalType": "uint256",
          "name": "pollId",
          "type": "uint256"
        },
        {
          "indexed": false,
          "internalType": "uint256",
          "name": "optionIndex",
          "type": "uint256"
        },
        {
          "indexed": false,
          "internalType": "address",
          "name": "voter",
          "type": "address"
        },
        {
          "indexed": false,
          "internalType": "uint256",
          "name": "totalVotes",
          "type": "uint256"
        }
      ],
      "name": "Voted",
      "type": "event"
    },
    {
      "inputs": [
        {
          "internalType": "uint256",
          "name": "_pollId",
          "type": "uint256"
        }
      ],
      "name": "closePoll",
      "outputs": [],
      "stateMutability": "nonpayable",
      "type": "function"
    },
    {
      "inputs": [
        {
          "internalType": "string",
          "name": "_question",
          "type": "string"
        },
        {
          "internalType": "string[]",
          "name": "_options",
          "type": "string[]"
        }
      ],
      "name": "createPoll",
      "outputs": [],
      "stateMutability": "nonpayable",
      "type": "function"
    },
    {
      "inputs": [],
      "name": "getAllPolls",
      "outputs": [
        {
          "internalType": "uint256[]",
          "name": "",
          "type": "uint256[]"
        },
        {
          "internalType": "string[]",
          "name": "",
          "type": "string[]"
        },
        {
          "internalType": "bool[]",
          "name": "",
          "type": "bool[]"
        }
      ],
      "stateMutability": "view",
      "type": "function"
    },
    {
      "inputs": [
        {
          "internalType": "uint256",
          "name": "_pollId",
          "type": "uint256"
        }
      ],
      "name": "getPoll",
      "outputs": [
        {
          "internalType": "string",
          "name": "",
          "type": "string"
        },
        {
          "internalType": "string[]",
          "name": "",
          "type": "string[]"
        },
        {
          "internalType": "bool",
          "name": "",
          "type": "bool"
        }
      ],
      "stateMutability": "view",
      "type": "function"
    },
    {
      "inputs": [
        {
          "internalType": "uint256",
          "name": "_pollId",
          "type": "uint256"
        }
      ],
      "name": "getPollOptions",
      "outputs": [
        {
          "internalType": "string[]",
          "name": "",
          "type": "string[]"
        }
      ],
      "stateMutability": "view",
      "type": "function"
    },
    {
      "inputs": [
        {
          "internalType": "uint256",
          "name": "_pollId",
          "type": "uint256"
        }
      ],
      "name": "getPollVotes",
      "outputs": [
        {
          "internalType": "uint256[]",
          "name": "",
          "type": "uint256[]"
        }
      ],
      "stateMutability": "view",
      "type": "function"
    },
    {
      "inputs": [
        {
          "internalType": "address",
          "name": "_user",
          "type": "address"
        }
      ],
      "name": "getUserPolls",
      "outputs": [
        {
          "internalType": "uint256[]",
          "name": "",
          "type": "uint256[]"
        },
        {
          "internalType": "string[]",
          "name": "",
          "type": "string[]"
        },
        {
          "internalType": "bool[]",
          "name": "",
          "type": "bool[]"
        }
      ],
      "stateMutability": "view",
      "type": "function"
    },
    {
      "inputs": [],
      "name": "pollCount",
      "outputs": [
        {
          "internalType": "uint256",
          "name": "",
          "type": "uint256"
        }
      ],
      "stateMutability": "view",
      "type": "function"
    },
    {
      "inputs": [
        {
          "internalType": "uint256",
          "name": "",
          "type": "uint256"
        },
        {
          "internalType": "uint256",
          "name": "",
          "type": "uint256"
        }
      ],
      "name": "pollOptions",
      "outputs": [
        {
          "internalType": "string",
          "name": "",
          "type": "string"
        }
      ],
      "stateMutability": "view",
      "type": "function"
    },
    {
      "inputs": [
        {
          "internalType": "uint256",
          "name": "",
          "type": "uint256"
        }
      ],
      "name": "polls",
      "outputs": [
        {
          "internalType": "uint256",
          "name": "id",
          "type": "uint256"
        },
        {
          "internalType": "string",
          "name": "question",
          "type": "string"
        },
        {
          "internalType": "bool",
          "name": "isActive",
          "type": "bool"
        },
        {
          "internalType": "address",
          "name": "creator",
          "type": "address"
        }
      ],
      "stateMutability": "view",
      "type": "function"
    },
    {
      "inputs": [
        {
          "internalType": "uint256",
          "name": "_pollId",
          "type": "uint256"
        },
        {
          "internalType": "uint256",
          "name": "_optionIndex",
          "type": "uint256"
        }
      ],
      "name": "vote",
      "outputs": [],
      "stateMutability": "nonpayable",
      "type": "function"
    }
  ],
  "transactionHash": "0x4f74c6ca5a67a4c75975899f6db45437195ede94bce40498d85776636b02054a",
  "args": [],
  "numDeployments": 1,
  "solcInputHash": "7e8f35e20d6c6bdcee321ef2bba8dde1",
  "bytecode": "0x608060405234801561001057600080fd5b506116a6806100206000396000f3fe608060405234801561001057600080fd5b50600436106100a95760003560e01c80639534e637116100715780639534e6371461012f578063ac2f007414610142578063b384abef14610165578063bbff716614610178578063f0114ad114610198578063f7562765146101b857600080fd5b806307f790e7146100ae5780631a8cbcaa146100d957806332b633fa146100fb5780637e3d71c3146101035780639207891d14610118575b600080fd5b6100c16100bc3660046110cb565b6101d8565b6040516100d0939291906111d1565b60405180910390f35b6100ec6100e736600461123c565b6104ab565b6040516100d093929190611255565b6100c1610649565b610116610111366004611344565b61088d565b005b61012160005481565b6040519081526020016100d0565b61011661013d36600461123c565b610a01565b61015561015036600461123c565b610b1b565b6040516100d0949392919061142b565b610116610173366004611465565b610bd9565b61018b61018636600461123c565b610db5565b6040516100d09190611487565b6101ab6101a6366004611465565b610e1a565b6040516100d0919061149a565b6101cb6101c636600461123c565b610ed3565b6040516100d091906114ad565b60608060606000805b600054811015610234576000818152600160205260409020600201546001600160a01b038088166101009092041603610222578161021e816114c0565b9250505b8061022c816114c0565b9150506101e1565b5060008167ffffffffffffffff8111156102505761025061128d565b604051908082528060200260200182016040528015610279578160200160208202803683370190505b50905060008267ffffffffffffffff8111156102975761029761128d565b6040519080825280602002602001820160405280156102ca57816020015b60608152602001906001900390816102b55790505b50905060008367ffffffffffffffff8111156102e8576102e861128d565b604051908082528060200260200182016040528015610311578160200160208202803683370190505b5090506000805b60005481101561049c576000818152600160205260409020600201546001600160a01b03808c16610100909204160361048a57600081815260016020526040902054855186908490811061036e5761036e6114e7565b60200260200101818152505060016000828152602001908152602001600020600101805461039b906114fd565b80601f01602080910402602001604051908101604052809291908181526020018280546103c7906114fd565b80156104145780601f106103e957610100808354040283529160200191610414565b820191906000526020600020905b8154815290600101906020018083116103f757829003601f168201915b505050505084838151811061042b5761042b6114e7565b60200260200101819052506001600082815260200190815260200160002060020160009054906101000a900460ff1683838151811061046c5761046c6114e7565b9115156020928302919091019091015281610486816114c0565b9250505b80610494816114c0565b915050610318565b50929891975095509350505050565b60008181526001602081815260408084206002808452918520928490529081015492018054606094859490939160ff9091169083906104e9906114fd565b80601f0160208091040260200160405190810160405280929190818152602001828054610515906114fd565b80156105625780601f1061053757610100808354040283529160200191610562565b820191906000526020600020905b81548152906001019060200180831161054557829003601f168201915b5050505050925081805480602002602001604051908101604052809291908181526020016000905b828210156106365783829060005260206000200180546105a9906114fd565b80601f01602080910402602001604051908101604052809291908181526020018280546105d5906114fd565b80156106225780601f106105f757610100808354040283529160200191610622565b820191906000526020600020905b81548152906001019060200180831161060557829003601f168201915b50505050508152602001906001019061058a565b5050505091509250925092509193909250565b60608060606000805467ffffffffffffffff81111561066a5761066a61128d565b604051908082528060200260200182016040528015610693578160200160208202803683370190505b5090506000805467ffffffffffffffff8111156106b2576106b261128d565b6040519080825280602002602001820160405280156106e557816020015b60608152602001906001900390816106d05790505b5090506000805467ffffffffffffffff8111156107045761070461128d565b60405190808252806020026020018201604052801561072d578160200160208202803683370190505b50905060005b600054811015610880576000818152600160205260409020548451859083908110610760576107606114e7565b60200260200101818152505060016000828152602001908152602001600020600101805461078d906114fd565b80601f01602080910402602001604051908101604052809291908181526020018280546107b9906114fd565b80156108065780601f106107db57610100808354040283529160200191610806565b820191906000526020600020905b8154815290600101906020018083116107e957829003601f168201915b505050505083828151811061081d5761081d6114e7565b60200260200101819052506001600082815260200190815260200160002060020160009054906101000a900460ff1682828151811061085e5761085e6114e7565b9115156020928302919091019091015280610878816114c0565b915050610733565b5091959094509092509050565b60018151116108ef5760405162461bcd60e51b815260206004820152602360248201527f506f6c6c206d7573742068617665206174206c656173742074776f206f7074696044820152626f6e7360e81b60648201526084015b60405180910390fd5b600080548082526001602081905260409092209081559081016109128482611586565b5060028101805433610100026001600160a81b0319909116176001179055815167ffffffffffffffff81111561094a5761094a61128d565b604051908082528060200260200182016040528015610973578160200160208202803683370190505b50805161098a916003840191602090910190610fbf565b5060008054815260026020908152604090912083516109ab9285019061100a565b506000547fd2a8dbeae3cac9e94402cc3d7e3ee6cb0a2c32d2e426bf82f24b87ffd1089efd84336040516109e0929190611646565b60405180910390a26000805490806109f7836114c0565b9190505550505050565b60008181526001602052604090206002015461010090046001600160a01b03163314610a6f5760405162461bcd60e51b815260206004820152601b60248201527f4f6e6c792063726561746f722063616e20636c6f736520706f6c6c000000000060448201526064016108e6565b60008181526001602052604090206002015460ff16610ac95760405162461bcd60e51b8152602060048201526016602482015275141bdb1b081a5cc8185b1c9958591e4818db1bdcd95960521b60448201526064016108e6565b600081815260016020908152604091829020600201805460ff19169055905133815282917f5f9f4b9200056c29dcdf9532acb77e0d5368e9f85580b6e1aeff24c36bddea2b910160405180910390a250565b600160208190526000918252604090912080549181018054610b3c906114fd565b80601f0160208091040260200160405190810160405280929190818152602001828054610b68906114fd565b8015610bb55780601f10610b8a57610100808354040283529160200191610bb5565b820191906000526020600020905b815481529060010190602001808311610b9857829003601f168201915b5050506002909301549192505060ff8116906001600160a01b036101009091041684565b600082815260016020526040902060020154829060ff16610c315760405162461bcd60e51b8152602060048201526012602482015271506f6c6c206973206e6f742061637469766560701b60448201526064016108e6565b60008381526001602090815260408083206002909252909120548310610c905760405162461bcd60e51b8152602060048201526014602482015273092dcecc2d8d2c840dee0e8d2dedc40d2dcc8caf60631b60448201526064016108e6565b33600090815260048201602052604090205460ff1615610ceb5760405162461bcd60e51b8152602060048201526016602482015275165bdd481a185d9948185b1c9958591e481d9bdd195960521b60448201526064016108e6565b806003018381548110610d0057610d006114e7565b60009182526020822001805491610d16836114c0565b90915550503360008181526004830160205260409020805460ff1916600117905560038201805486927f41df84b3b467b06744e40c92613c666324e7c640ce0a41ec06efdf602d36760692879283908110610d7357610d736114e7565b9060005260206000200154604051610da7939291909283526001600160a01b03919091166020830152604082015260600190565b60405180910390a250505050565b600081815260016020908152604091829020600301805483518184028101840190945280845260609392830182828015610e0e57602002820191906000526020600020905b815481526020019060010190808311610dfa575b50505050509050919050565b60026020528160005260406000208181548110610e3657600080fd5b90600052602060002001600091509150508054610e52906114fd565b80601f0160208091040260200160405190810160405280929190818152602001828054610e7e906114fd565b8015610ecb5780601f10610ea057610100808354040283529160200191610ecb565b820191906000526020600020905b815481529060010190602001808311610eae57829003601f168201915b505050505081565b606060026000838152602001908152602001600020805480602002602001604051908101604052809291908181526020016000905b82821015610fb4578382906000526020600020018054610f27906114fd565b80601f0160208091040260200160405190810160405280929190818152602001828054610f53906114fd565b8015610fa05780601f10610f7557610100808354040283529160200191610fa0565b820191906000526020600020905b815481529060010190602001808311610f8357829003601f168201915b505050505081526020019060010190610f08565b505050509050919050565b828054828255906000526020600020908101928215610ffa579160200282015b82811115610ffa578251825591602001919060010190610fdf565b5061100692915061105c565b5090565b828054828255906000526020600020908101928215611050579160200282015b8281111561105057825182906110409082611586565b509160200191906001019061102a565b50611006929150611071565b5b80821115611006576000815560010161105d565b80821115611006576000611085828261108e565b50600101611071565b50805461109a906114fd565b6000825580601f106110aa575050565b601f0160209004906000526020600020908101906110c8919061105c565b50565b6000602082840312156110dd57600080fd5b81356001600160a01b03811681146110f457600080fd5b9392505050565b600081518084526020808501945080840160005b8381101561112b5781518752958201959082019060010161110f565b509495945050505050565b6000815180845260005b8181101561115c57602081850181015186830182015201611140565b506000602082860101526020601f19601f83011685010191505092915050565b600081518084526020808501808196508360051b8101915082860160005b858110156111c45782840389526111b2848351611136565b9885019893509084019060010161119a565b5091979650505050505050565b6060815260006111e460608301866110fb565b6020838203818501526111f7828761117c565b8481036040860152855180825282870193509082019060005b8181101561122e578451151583529383019391830191600101611210565b509098975050505050505050565b60006020828403121561124e57600080fd5b5035919050565b6060815260006112686060830186611136565b828103602084015261127a818661117c565b9150508215156040830152949350505050565b634e487b7160e01b600052604160045260246000fd5b604051601f8201601f1916810167ffffffffffffffff811182821017156112cc576112cc61128d565b604052919050565b600082601f8301126112e557600080fd5b813567ffffffffffffffff8111156112ff576112ff61128d565b611312601f8201601f19166020016112a3565b81815284602083860101111561132757600080fd5b816020850160208301376000918101602001919091529392505050565b6000806040838503121561135757600080fd5b823567ffffffffffffffff8082111561136f57600080fd5b61137b868387016112d4565b935060209150818501358181111561139257600080fd5b8501601f810187136113a357600080fd5b8035828111156113b5576113b561128d565b8060051b6113c48582016112a3565b918252828101850191858101908a8411156113de57600080fd5b86850192505b8383101561141a578235868111156113fc5760008081fd5b61140a8c89838901016112d4565b83525091860191908601906113e4565b809750505050505050509250929050565b8481526080602082015260006114446080830186611136565b9315156040830152506001600160a01b039190911660609091015292915050565b6000806040838503121561147857600080fd5b50508035926020909101359150565b6020815260006110f460208301846110fb565b6020815260006110f46020830184611136565b6020815260006110f4602083018461117c565b6000600182016114e057634e487b7160e01b600052601160045260246000fd5b5060010190565b634e487b7160e01b600052603260045260246000fd5b600181811c9082168061151157607f821691505b60208210810361153157634e487b7160e01b600052602260045260246000fd5b50919050565b601f82111561158157600081815260208120601f850160051c8101602086101561155e5750805b601f850160051c820191505b8181101561157d5782815560010161156a565b5050505b505050565b815167ffffffffffffffff8111156115a0576115a061128d565b6115b4816115ae84546114fd565b84611537565b602080601f8311600181146115e957600084156115d15750858301515b600019600386901b1c1916600185901b17855561157d565b600085815260208120601f198616915b82811015611618578886015182559484019460019091019084016115f9565b50858210156116365787850151600019600388901b60f8161c191681555b5050505050600190811b01905550565b6040815260006116596040830185611136565b905060018060a01b0383166020830152939250505056fea2646970667358221220c9d2d0db8bf3d0ea4376d8814d8db1d94fbb443b31810287f72ba1b2ce07da1964736f6c63430008140033",
  "devdoc": {
    "kind": "dev",
    "methods": {},
    "version": 1
  },
  "userdoc": {
    "kind": "user",
    "methods": {},
    "version": 1
  },
  "storageLayout": {
    "storage": [
      {
        "astId": 19,
        "contract": "contracts/VotingPlatform.sol:VotingPlatform",
        "label": "pollCount",
        "offset": 0,
        "slot": "0",
        "type": "t_uint256"
      },
      {
        "astId": 24,
        "contract": "contracts/VotingPlatform.sol:VotingPlatform",
        "label": "polls",
        "offset": 0,
        "slot": "1",
        "type": "t_mapping(t_uint256,t_struct(Poll)17_storage)"
      },
      {
        "astId": 29,
        "contract": "contracts/VotingPlatform.sol:VotingPlatform",
        "label": "pollOptions",
        "offset": 0,
        "slot": "2",
        "type": "t_mapping(t_uint256,t_array(t_string_storage)dyn_storage)"
      }
    ],
    "types": {
      "t_address": {
        "encoding": "inplace",
        "label": "address",
        "numberOfBytes": "20"
      },
      "t_array(t_string_storage)dyn_storage": {
        "base": "t_string_storage",
        "encoding": "dynamic_array",
        "label": "string[]",
        "numberOfBytes": "32"
      },
      "t_array(t_uint256)dyn_storage": {
        "base": "t_uint256",
        "encoding": "dynamic_array",
        "label": "uint256[]",
        "numberOfBytes": "32"
      },
      "t_bool": {
        "encoding": "inplace",
        "label": "bool",
        "numberOfBytes": "1"
      },
      "t_mapping(t_address,t_bool)": {
        "encoding": "mapping",
        "key": "t_address",
        "label": "mapping(address => bool)",
        "numberOfBytes": "32",
        "value": "t_bool"
      },
      "t_mapping(t_uint256,t_array(t_string_storage)dyn_storage)": {
        "encoding": "mapping",
        "key": "t_uint256",
        "label": "mapping(uint256 => string[])",
        "numberOfBytes": "32",
        "value": "t_array(t_string_storage)dyn_storage"
      },
      "t_mapping(t_uint256,t_struct(Poll)17_storage)": {
        "encoding": "mapping",
        "key": "t_uint256",
        "label": "mapping(uint256 => struct VotingPlatform.Poll)",
        "numberOfBytes": "32",
        "value": "t_struct(Poll)17_storage"
      },
      "t_string_storage": {
        "encoding": "bytes",
        "label": "string",
        "numberOfBytes": "32"
      },
      "t_struct(Poll)17_storage": {
        "encoding": "inplace",
        "label": "struct VotingPlatform.Poll",
        "members": [
          {
            "astId": 3,
            "contract": "contracts/VotingPlatform.sol:VotingPlatform",
            "label": "id",
            "offset": 0,
            "slot": "0",
            "type": "t_uint256"
          },
          {
            "astId": 5,
            "contract": "contracts/VotingPlatform.sol:VotingPlatform",
            "label": "question",
            "offset": 0,
            "slot": "1",
            "type": "t_string_storage"
          },
          {
            "astId": 7,
            "contract": "contracts/VotingPlatform.sol:VotingPlatform",
            "label": "isActive",
            "offset": 0,
            "slot": "2",
            "type": "t_bool"
          },
          {
            "astId": 9,
            "contract": "contracts/VotingPlatform.sol:VotingPlatform",
            "label": "creator",
            "offset": 1,
            "slot": "2",
            "type": "t_address"
          },
          {
            "astId": 12,
            "contract": "contracts/VotingPlatform.sol:VotingPlatform",
            "label": "votes",
            "offset": 0,
            "slot": "3",
            "type": "t_array(t_uint256)dyn_storage"
          },
          {
            "astId": 16,
            "contract": "contracts/VotingPlatform.sol:VotingPlatform",
            "label": "hasVoted",
            "offset": 0,
            "slot": "4",
            "type": "t_mapping(t_address,t_bool)"
          }
        ],
        "numberOfBytes": "160"
      },
      "t_uint256": {
        "encoding": "inplace",
        "label": "uint256",
        "numberOfBytes": "32"
      }
    }
  }
}